:020000040800F2
:10000000C806002029020008310200083302000857
:10001000350200083702000839020008000000001D
:100020000000000000000000000000003B0200088B
:100030003D020008000000003F02000861060008C1
:10004000430200084302000843020008430200087C
:10005000430200084302000843020008430200086C
:10006000430200084302000843020008430200085C
:10007000430200084302000843020008430200084C
:10008000430200084302000843020008430200083C
:10009000430200084302000843020008430200082C
:1000A000430200084302000843020008430200081C
:1000B0008D070008430200084302000843020008BD
:1000C00043020008430200084302000843020008FC
:1000D00043020008430200084302000843020008EC
:1000E00043020008430200084302000843020008DC
:1000F00043020008430200084302000843020008CC
:1001000043020008430200084302000843020008BB
:1001100043020008430200084302000843020008AB
:10012000430200084302000843020008430200089B
:10013000430200084302000843020008430200088B
:10014000430200084302000843020008430200087B
:10015000430200084302000843020008430200086B
:10016000430200084302000843020008430200085B
:100170004302000843020008430200080000000098
:10018000430200084302000800F002F800F03CF8C7
:100190000AA090E8000C82448344AAF10107DA45E2
:1001A00001D100F031F8AFF2090EBAE80F0013F0F8
:1001B000010F18BFFB1A43F001031847D00A0000D3
:1001C000F00A0000103A24BF78C878C1FAD8520764
:1001D00024BF30C830C144BF04680C6070470000C1
:1001E0000023002400250026103A28BF78C1FBD840
:1001F000520728BF30C148BF0B6070471FB500F0E1
:1002000033FD1FBD10B510BD00F031F81146FFF7EA
:10021000F5FF00F05BFC00F04FF803B4FFF7F2FFCE
:1002200003BC00F057F80000094880470948004720
:10023000FEE7FEE7FEE7FEE7FEE7FEE7FEE7FEE796
:10024000FEE7FEE704480549054A064B70470000F3
:100250002907000889010008C8000020C8060020FE
:10026000C8020020C80200207047704770477546DA
:1002700000F02CF8AE4605006946534620F0070012
:10028000854618B020B5FFF7DDFFBDE820404FF0F0
:1002900000064FF000074FF000084FF0000B21F070
:1002A0000701AC46ACE8C009ACE8C009ACE8C0093D
:1002B000ACE8C0098D46704710B50446AFF3008026
:1002C0002046BDE81040FFF7A8BF00000048704777
:1002D0006800002001491820ABBEFEE7260002009E
:1002E00070470000014A107070470000003C024057
:1002F000F0B50A4600210023002400BF3DE001259F
:1003000005FA01F3156805EA03049C4234D1056837
:100310004F000326BE40B543056015794E00B54039
:100320000668354305601579012D02D01579022D37
:1003300016D185684F000326BE40B54385605579C8
:100340004E00B540866835438560456801268E407D
:10035000B5434560456896798E40B6B235434560F1
:10036000C5684F000326BE40B543C560D5794E0031
:10037000B540C6683543C560491C1029BFD3F0BDE0
:10038000F0B5002300244D07ED0E02FA05F3CE1060
:1003900000F1200555F826504E07F70E0F26BE40F7
:1003A000B543CF1000F1200646F82750CE1000F1DB
:1003B000200555F8265045EA0304CE1000F120052B
:1003C00045F82640F0BD418370470183704742697C
:1003D0004A4042617047000029B1064A1268024350
:1003E000044B1A6004E0034A12688243014B1A600E
:1003F000704700003038024029B1064A12680243B3
:10040000044B1A6004E0034A12688243014B1A60ED
:1004100070470000443802400E48006840F0010078
:100420000C49086000200B49083108600948006841
:1004300009490840074908600848091D0860081F65
:10044000006820F48020091F0860002001490C3159
:100450000860704700380240FFFFF6FE10300024AD
:10046000F0B5002100220024022500260223324F8D
:100470003F6807F00C0121B1042905D0082937D1C4
:1004800005E02E4F076036E02D4F076033E02A4F1E
:100490003F1F3F68C7F38056274F3F1F3F6807F055
:1004A0003F036EB1264FB7FBF3F7DFF88CC0ACF11A
:1004B000040CDCF800C0CCF3881C07FB0CF40CE047
:1004C0001E4FB7FBF3F7DFF870C0ACF1040CDCF89B
:1004D00000C0CCF3881C07FB0CF4174F3F1F3F688C
:1004E000C7F301477F1C7D00B4FBF5F7076002E00E
:1004F000124F076000BF00BF0F4F3F6807F0F001C9
:100500000909104F7A5C0768D74047600A4F3F6877
:1005100007F4E051890A0B4F7A5C4768D74087603F
:10052000054F3F6807F46041490B064F7A5C476806
:10053000D740C760F0BD0000083802400024F40036
:1005400000127A001D00002010B501460022002391
:1005500000204A11012A02D10A4C236808E0022A2D
:1005600003D1084C7034236802E0064C74342368CD
:1005700001F01F02012494401C400CB1012000E056
:10058000002010BD0038024001460020034A1068D8
:1005900020F0F00008431060704700000838024067
:1005A0000021024A1170114608707047023802405B
:1005B00001460020034A106820F4E0500843106010
:1005C000704700000838024001460020034A1068C6
:1005D00020F4604040EAC1001060704708380240D3
:1005E00001490866704700000000474270B5049C4E
:1005F00041EA82150126C6EB530645EA0645054346
:1006000045EA0465014E356070BD000004380240C3
:1006100001460020034A106820F0030008431060E0
:10062000704700000838024038B5002000900024D0
:10063000002500BF3120FFF787FF05460098401CCA
:1006400000900098B0F5A06F01D0002DF2D03120BD
:10065000FFF77AFF08B1012400E00024204638BDEE
:1006600010B500F0B9F810BD70B5002000220223CB
:1006700000240221274D2D6805F00C0020B104282C
:1006800006D0082834D107E0234D244E356033E0EE
:10069000234D224E35602FE01E4D2D1F2D68C5F3D2
:1006A00080541C4D2D1F2D6805F03F0154B11C4D89
:1006B000B5FBF1F5174E361F3668C6F3881605FBF5
:1006C00006F209E0144DB5FBF1F5124E361F3668FF
:1006D000C6F3881605FB06F20E4D2D1F2D68C5F3D7
:1006E00001456D1C6B00B2FBF3F50C4E356003E069
:1006F000094D0A4E356000BF00BF064D2D68C5F399
:100700000315084E705D054D2D68C540034E3560DC
:1007100070BD0000083802400024F40030000020C2
:1007200000127A00720C00081448006840F470004F
:10073000124908601248006840F001001049086042
:1007400000200F49083108600D4800680D49084035
:100750000B4908600C48091D0860081F006820F458
:100760008020091F0860002005490C3108604FF007
:1007700000600249803908607047000088ED00E0A1
:1007800000380240FFFFF6FE1030002410B50121B2
:10079000880700F010F838B140210448FFF717FE31
:1007A0000121880700F004F810BD0000000002409D
:1007B000CA430282704730B502460020002300245D
:1007C000158A05EA0103958905EA010413B10CB104
:1007D000012000E0002030BD0448006820B103483B
:1007E0000068401E014908607047000000000020BA
:1007F00021B1828942F40052828104E082894DF65F
:10080000FF731A408281704700B587B00121084606
:10081000FFF7E2FD01211020FFF7EEFD072209217D
:100820001948FFF7ADFD07220A211748FFF7A8FD79
:100830004FF4C060059002208DF818008DF8190063
:1008400000208DF81A0001208DF81B0005A90E4824
:10085000FFF74EFD4FF4165001900020ADF8100048
:100860000C20ADF80E000020ADF80C00ADF80A0029
:10087000ADF8080001A9054800F026F80121034859
:10088000FFF7B6FF07B000BD0000024000100140B6
:1008900010B500BF2021044800F008F80028F9D066
:1008A000014800F096F810BD0010014002460020FB
:1008B000B1F5007F00D100BF13880B400BB10120C0
:1008C00000E00020704700002DE9FF4705460E4676
:1008D0000024A14600BFA046B08900B100BF2C8A09
:1008E00024F44054F08804432C82AC8941F20C601B
:1008F0008443B08831890843718908430443AC813B
:10090000AC8A24F44074B0890443AC826846FFF793
:10091000A7FD2048854202D01F48854202D1DDF85C
:100920000C9001E0DDF80890A88900F4004040B187
:1009300009EBC90000EB091031684900B0FBF1F781
:1009400007E009EBC90000EB091031688900B0FB32
:10095000F1F76420B7FBF0F004012009642101FBEA
:100960001078A88900F4004040B1322000EBC800A4
:10097000B0FBF1F000F00700044308E0322000EB88
:1009800008106421B0FBF1F000F00F0004432C814B
:10099000BDE8FF87001001400014014010B5044677
:1009A00000BF80210448FFF781FF0028F9D02146CD
:1009B000014800F013F810BD0010014010B50446C6
:1009C00003E014F8010BFFF7E9FF20780028F8D1C5
:1009D00010BD01468888C0F308007047C1F30802C3
:1009E0008280704710B5024608480023037000BF9C
:1009F000B2FBF1F301FB1323054CE45C431E1846E4
:100A00001C70B2FBF1F2002AF2D110BD650000208B
:100A10000C00002038B5FFF7FFFC0120FFF7C0FDF8
:100A2000FFF702FE0446012C23D1072002234FF4D6
:100A3000A87208210090C804FFF7D8FD0120FFF735
:100A4000CFFD00BF3920FFF77FFD0028FAD0052039
:100A5000FFF748FC0020FFF797FD4FF4A050FFF789
:100A6000A7FD4FF48050FFF7AFFD0220FFF7D0FD48
:100A700001E000BFFEE7FFF7F7FD38BD10B501212B
:100A80000846FFF7A9FCC0200D4908600120087145
:100A900000208871032048710020C8710948FFF7C1
:100AA00027FC01210820FFF797FC18200449086063
:100AB00000200871C8710448FFF71AFC10BD00003F
:100AC000040000200000024000100240FFF7A2FFD7
:100AD000274800684FF47A72B0FBF2F1481EB0F17B
:100AE000807F01D301201BE0481E4FF0E0225061BF
:100AF00050170F22002804DB13071C0E1D4B1C543B
:100B000006E013071F0E1C4B00F00F04241F1F5597
:100B100000BF00204FF0E02290610720106100200C
:100B200008B100BFFEE7FFF7A9FFFFF76DFE13A0B6
:100B3000FFF744FF40F2D24514A618E0FFF7A8FEE5
:100B40000446482C04D140211248FFF73EFC0DE03A
:100B50004C2C04D140210F48FFF735FC06E0412C16
:100B600004D1324629460CA000F020F800BFE5E78A
:100B70003000002000E400E018ED00E048656C6CF7
:100B80006F2C204C69656E210A00000048656C6C72
:100B90006F000000000002400A2066696C65206951
:100BA0006E20256420257320000000000FB4F8B5E6
:100BB00007A80090069C50E003E02078FFF7EEFEC7
:100BC000641C2078252802D020780028F5D1641CE8
:100BD00020786F2822D004DC632807D064283AD11B
:100BE0000BE0732825D0782835D129E0009820C85B
:100BF0000090E8B2FFF7D2FE2DE0009820C80090E8
:100C0000002D03DA6D422D20FFF7C8FE0A21284689
:100C1000FFF7E8FE0746FFF7D1FE1CE0009820C86A
:100C2000009008212846FFF7DDFE0746FFF7C6FEC5
:100C300011E0009840C800903046FFF7BFFE0AE080
:100C4000009820C8009010212846FFF7CBFE0746E9
:100C5000FFF7B4FE00BF00BF641C20780028ABD1B2
:100C60000090F8BC5DF814FB4FF04070E1EE100A04
:100C700070470000000000000000010203040607A6
:100C8000080900000000010203040000AC0C000889
:100C90000000002034000000C4010008E00C00083F
:100CA0003400002094060000E0010008000000006D
:100CB0000000000000000000303132333435363798
:100CC0003839414243444546000000000001020318
:100CD0000401020304060708090000000024F400D0
:0400000508000229C4
:00000001FF
