:020000040800F2
:10000000E806002029020008310200083302000837
:10001000350200083702000839020008000000001D
:100020000000000000000000000000003B0200088B
:100030003D020008000000003F020008790D0008A2
:10004000430200084302000843020008430200087C
:100050004302000843020008390800085D08000850
:1000600081080008A50800084302000843020008B0
:10007000430200084302000843020008430200084C
:10008000430200084302000843020008430200083C
:10009000430200084302000843020008430200082C
:1000A000430200084302000843020008430200081C
:1000B000A50E0008BD0E0008430200084302000818
:1000C00043020008430200084302000843020008FC
:1000D00043020008430200084302000843020008EC
:1000E00043020008430200084302000843020008DC
:1000F00043020008430200084302000843020008CC
:1001000043020008430200084302000843020008BB
:1001100043020008430200084302000843020008AB
:10012000430200084302000843020008430200089B
:10013000430200084302000843020008430200088B
:10014000430200084302000843020008430200087B
:10015000430200084302000843020008430200086B
:10016000430200084302000843020008430200085B
:100170004302000843020008430200080000000098
:10018000430200084302000800F002F800F03CF8C7
:100190000AA090E8000C82448344AAF10107DA45E2
:1001A00001D100F031F8AFF2090EBAE80F0013F0F8
:1001B000010F18BFFB1A43F0010318473C1200005F
:1001C0005C120000103A24BF78C878C1FAD85207F0
:1001D00024BF30C830C144BF04680C6070470000C1
:1001E0000023002400250026103A28BF78C1FBD840
:1001F000520728BF30C148BF0B6070471FB501F0E0
:10020000E9F81FBD10B510BD00F031F81146FFF739
:10021000F5FF00F0B3FF00F04FF803B4FFF7F2FF73
:1002200003BC00F057F80000094880470948004720
:10023000FEE7FEE7FEE7FEE7FEE7FEE7FEE7FEE796
:10024000FEE7FEE704480549054A064B70470000F3
:10025000410E000889010008E8000020E80600209F
:10026000E8020020E802002070477047704775469A
:1002700000F02CF8AE4605006946534620F0070012
:10028000854618B020B5FFF7DDFFBDE820404FF0F0
:1002900000064FF000074FF000084FF0000B21F070
:1002A0000701AC46ACE8C009ACE8C009ACE8C0093D
:1002B000ACE8C0098D46704710B50446AFF3008026
:1002C0002046BDE81040FFF7A8BF00000048704777
:1002D0008800002001491820ABBEFEE7260002007E
:1002E000704721B1826842F00102826003E08268B7
:1002F00022F00102826070470021084A1168084A12
:100300001140D0E900231A4383681A43C3681A4393
:100310001143044AC2F8041370470000042301404B
:10032000E030FCFF0020014021B1826842F480727D
:10033000826003E0826822F480728260704721B19B
:10034000826842F40072826003E0826822F40072E4
:100350008260704710B50121080200F0F5FB002112
:100360004FF4807000F0F0FB10BD000030B5024685
:10037000002000235068104C20400D790C6844EA9E
:1003800005242043506090680C4C2040D1E9035470
:100390002C438D682C434D7944EA450420439060FA
:1003A000D06A20F470000C7D641EE4B2234340EA5E
:1003B0000350D06230BD0000FFFEFFFCFDF7FFC020
:1003C000F0B504460D4600200021092D11DDE0683E
:1003D000A5F10A0606EB4607072606FA07F1884349
:1003E000A5F10A0606EB460603FA06F10843E060AB
:1003F0000CE0206905EB4507072606FA07F188435C
:1004000005EB450603FA06F108432061072A0FDAD7
:10041000606B561E06EB86071F2606FA07F1884317
:10042000561E06EB860605FA06F10843606322E0D5
:100430000D2A0FDA206BD61F06EB86071F2606FA59
:1004400007F18843D61F06EB860605FA06F1084336
:10045000206310E0E06AA2F10D0606EB86071F2676
:1004600006FA07F18843A2F10D0606EB860605FAA7
:1004700006F10843E062F0BD816841F0804181608F
:100480007047000000B59BB001214A4800F02CFBEA
:100490000121880200F048FB4FF08060029046483E
:1004A0000390464804900020059005200690002007
:1004B00007904FF4806008904000099080000A90F7
:1004C00040110B9040020C9000200D9001200E90E6
:1004D00000200F90109002A9394800F081F9012105
:1004E000374800F071F90F20009003208DF80400C8
:1004F00000208DF807006946324800F049FA0220D2
:1005000000906946304800F043FA002011901290A4
:100510001390149011A8FFF7EFFEFFF71BFF0020C8
:10052000159001208DF858008DF859000020189082
:100530001790199005208DF8680015A91E484C38B1
:10054000FFF714FF062301220A211B484C38FFF74E
:1005500037FF062302220B2117484C38FFF730FFE4
:10056000062303220C2114484C38FFF729FF0623E9
:1005700004220D2110484C38FFF722FF06230522E4
:1005800001210D484C38FFF71BFF01210A484C3868
:10059000FFF7D5FE012108484C38FFF7C5FE0121C1
:1005A00005484C38FFF79DFE03484C38FFF764FFC1
:1005B0001BB000BD050040004C2201404C00002053
:1005C00010640240000802400000024000B585B0FF
:1005D0000121082000F088FA0121880300F0A4FA24
:1005E00000208DF810008DF81200012003908DF886
:1005F000130003208DF8110003A9124800F0C8F978
:100600000021032000F098FB012001908DF80A00E2
:1006100000208DF808000C208DF8090001A800F0DA
:100620006DF906208DF8000000208DF801008DF88E
:10063000020001208DF80300684600F019FA05B0A9
:1006400000BD0000000C024000B585B0012108206B
:1006500000F04AFA0121880300F066FA00208DF8C4
:1006600010008DF812000220039001208DF8130075
:1006700003208DF8110003A9124800F089F9012127
:10068000032000F059FB0220019001208DF80A00A0
:1006900000208DF808000C208DF8090001A800F05A
:1006A0002DF907208DF8000000208DF801000120B1
:1006B0008DF802008DF80300684600F0D9F905B006
:1006C00000BD0000000C024000B585B001210820EB
:1006D00000F00AFA0121880300F026FA00208DF8C4
:1006E00010008DF812000420039001208DF81300F3
:1006F00003208DF8110003A9124800F049F90221E6
:10070000032000F019FB0420019001208DF80A005D
:1007100000208DF808000C208DF8090001A800F0D9
:10072000EDF808208DF8000000208DF8010002206F
:100730008DF8020001208DF80300684600F098F95A
:1007400005B000BD000C024000B585B001210820B5
:1007500000F0CAF90121880300F0E6F900208DF8C5
:1007600010008DF812000820039001208DF813006E
:1007700003208DF8110003A9124800F009F90321A4
:10078000084600F0D9FA0820019001208DF80A00EF
:1007900000208DF808000C208DF8090001A800F059
:1007A000ADF809208DF8000000208DF8010003202D
:1007B0008DF8020001208DF80300684600F058F91A
:1007C00005B000BD000C024021B1026842F00102F8
:1007D000026003E0026822F001020260704700003C
:1007E00010B500220268134B1A40CC680B682343F3
:1007F0004C6923438C692343CC6923430C6A23430C
:100800004C6A23438C6A23434C6B23438C6B2343F6
:100810001A430260426922F00702D1E90B342343F4
:100820001A4342610B6943604B6883608B68C36005
:1008300010BD00003F801CF010B5012000F04AF808
:1008400040B90548B0F90000C043034908800120C1
:1008500000F03AF810BD00000A00002010B5022098
:1008600000F038F840B90548B0F90000C04303492A
:100870000880022000F028F810BD00000C000020C5
:1008800010B5042000F026F840B90548B0F9000082
:10089000C04303490880042000F016F810BD000092
:1008A0000E00002010B5082000F014F840B90548EB
:1008B000B0F90000C04303490880082000F004F8A4
:1008C00010BD0000100000200149086070470000C2
:1008D000143C0140014600200022074B1B6803EA3C
:1008E0000102054B14331B680B4013B10AB1012000
:1008F00000E0002070470000003C01400021234937
:100900008279002A3AD00A46126803689A430B4655
:100910001A600A1D126803689A430B1D1A60027957
:1009200011440A6803681A430A60184A08321268B8
:1009300003689A43154B08331A601A1D126803683E
:100940009A43124B0C331A604279102A0ED11A1FA7
:10095000126803681A430D4B08331A601A1D126897
:1009600003681A43094B0C331A600DE007494279BA
:1009700011440A6803681A430A6005E002791144C9
:100980000A6803689A430A6070470000003C01400F
:10099000F0B50A4600210023002400BF3DE00125F8
:1009A00005FA01F3156805EA03049C4234D1056891
:1009B0004F000326BE40B543056015794E00B54093
:1009C0000668354305601579012D02D01579022D91
:1009D00016D185684F000326BE40B5438560557922
:1009E0004E00B540866835438560456801268E40D7
:1009F000B5434560456896798E40B6B2354345604B
:100A0000C5684F000326BE40B543C560D5794E008A
:100A1000B540C6683543C560491C1029BFD3F0BD39
:100A2000F0B5002300244D07ED0E02FA05F3CE10B9
:100A300000F1200555F826504E07F70E0F26BE4050
:100A4000B543CF1000F1200646F82750CE1000F134
:100A5000200555F8265045EA0304CE1000F1200584
:100A600045F82640F0BD4183704701837047000080
:100A700070B5002100230F22C4781CB3174C2468E2
:100A800004F4E064C4F5E064C4F30721C1F1040494
:100A9000E3B20A4144789C40E1B284781440214397
:100AA0000C07210E0E4C05786155047804F01F05E3
:100AB0000124AC4005786D11AD0005F1E025C5F8C5
:100AC000004109E0047804F01F050124AC40054D05
:100AD0000678761145F8264070BD00000CED00E068
:100AE00000E400E080E100E029B1064A1268024318
:100AF000044B1A6004E0034A12688243014B1A60F7
:100B0000704700003038024029B1064A126802439B
:100B1000044B1A6004E0034A12688243014B1A60D6
:100B2000704700004038024029B1064A126802436B
:100B3000044B1A6004E0034A12688243014B1A60B6
:100B4000704700004438024029B1064A1268024347
:100B5000044B1A6004E0034A12688243014B1A6096
:100B60007047000024380240F0B500210022002424
:100B7000022500260223324F3F6807F00C0121B105
:100B8000042905D0082937D105E02E4F076036E04B
:100B90002D4F076033E02A4F3F1F3F68C7F3805651
:100BA000274F3F1F3F6807F03F036EB1264FB7FB4B
:100BB000F3F7DFF88CC0ACF1040CDCF800C0CCF328
:100BC000881C07FB0CF40CE01E4FB7FBF3F7DFF8B3
:100BD00070C0ACF1040CDCF800C0CCF3881C07FB3F
:100BE0000CF4174F3F1F3F68C7F301477F1C7D0080
:100BF000B4FBF5F7076002E0124F076000BF00BFCB
:100C00000F4F3F6807F0F0010909104F7A5C076841
:100C1000D74047600A4F3F6807F4E051890A0B4FFD
:100C20007A5C4768D7408760054F3F6807F46041AA
:100C3000490B064F7A5C4768D740C760F0BD00009B
:100C4000083802400024F40000127A003500002029
:100C500008B500F0ABF92F49088008460088422803
:100C600017D008DC31280DD0322818D0332823D0F3
:100C700034283BD12DE0432818D0442823D04528E0
:100C800034D12DE001202449088000202349088028
:100C90002DE00120204908802049088027E001201C
:100CA0001D49088000201E49088020E001201A49C3
:100CB00008801B4908801AE001201749088000209D
:100CC0001849088013E0012013490880154908805D
:100CD0000DE001201049088000201349088006E03B
:100CE00001200D4908801049088000E000BF00BFC6
:100CF0000D48B0F9000000900A48B0F900300848EB
:100D0000B0F900200548B0F9001008A000F088FAFA
:100D100008BD000004000020080000200A00002098
:100D20000C0000200E000020100000202564256427
:100D3000256425640000000030B500228B071C0FDD
:100D40000F2303FA04F20B4B8C1053F82430934317
:100D5000084C8D1044F8253023468C1053F824306D
:100D60008C07240F00FA04F42343024C8D1044F83E
:100D7000253030BD0838014010B500F0C7F810BD6F
:100D800070B500200022022300240221274D2D6887
:100D900005F00C0020B1042806D0082834D107E063
:100DA000234D244E356033E0234D224E35602FE035
:100DB0001E4D2D1F2D68C5F380541C4D2D1F2D6811
:100DC00005F03F0154B11C4DB5FBF1F5174E361F30
:100DD0003668C6F3881605FB06F209E0144DB5FB2C
:100DE000F1F5124E361F3668C6F3881605FB06F27B
:100DF0000E4D2D1F2D68C5F301456D1C6B00B2FB18
:100E0000F3F50C4E356003E0094D0A4E356000BF26
:100E100000BF064D2D68C5F30315084E705D054DE6
:100E20002D68C540034E356070BD00000838024093
:100E30000024F4004800002000127A00DE130008AD
:100E40001448006840F470001249086012480068B5
:100E500040F001001049086000200F490831086087
:100E60000D4800680D4908400B4908600C48091DF1
:100E70000860081F006820F48020091F0860002017
:100E800005490C3108604FF0006002498039086064
:100E90007047000088ED00E000380240FFFFF6FEDA
:100EA0001030002410B50121880700F01EF818B199
:100EB0000121880700F016F810BD000010B50121CF
:100EC000064800F012F840B105480078401C04497B
:100ED00008700121014800F005F810BD0004004031
:100EE0001A000020CA430282704730B50246002033
:100EF00000230024158A05EA0103958905EA010407
:100F000013B10CB1012000E0002030BD044800689E
:100F100020B103480068401E014908607047000086
:100F20000000002000B587B001210846FFF7DCFD76
:100F300001214804FFF7E8FD072202211948FFF7C5
:100F40006FFD072203211748FFF76AFD0C2005906B
:100F500002208DF818008DF8190000208DF81A0075
:100F600001208DF81B0005A90E48FFF711FD4FF475
:100F7000165001900020ADF810000C20ADF80E00C6
:100F80000020ADF80C00ADF80A00ADF8080001A98A
:100F9000054800F04DF80121034800F030F807B093
:100FA00000BD0000000002400044004010B500BF3A
:100FB0002021044800F02FF80028F9D0014800F063
:100FC000A1F810BD0044004010B5044600BF8021C8
:100FD000044800F020F80028F9D02146014800F02C
:100FE00096F810BD0044004010B5044603E014F824
:100FF000010BFFF7E9FF20780028F8D110BD21B1DF
:10100000828942F40052828104E082894DF6FF73A6
:101010001A408281704702460020B1F5007F00D15E
:1010200000BF13880B400BB1012000E00020704787
:101030002DE9FF4705460E460024A14600BFA04605
:10104000B08900B100BF2C8A24F44054F0880443D6
:101050002C82AC8941F20C608443B088318908430A
:10106000718908430443AC81AC8A24F44074B0898C
:101070000443AC826846FFF777FD2048854202D0E2
:101080001F48854202D1DDF80C9001E0DDF80890A0
:10109000A88900F4004040B109EBC90000EB091039
:1010A00031684900B0FBF1F707E009EBC90000EB3C
:1010B000091031688900B0FBF1F76420B7FBF0F04C
:1010C00004012009642101FB1078A88900F4004084
:1010D00040B1322000EBC800B0FBF1F000F0070097
:1010E000044308E0322000EB08106421B0FBF1F06B
:1010F00000F00F0004432C81BDE8FF870010014081
:101100000014014001468888C0F308007047C1F30D
:10111000080282807047000010B50246084800238C
:10112000037000BFB2FBF1F301FB1323054CE45C39
:10113000431E18461C70B2FBF1F2002AF2D110BD1A
:10114000870000202400002010B501210820FFF7AF
:10115000CBFC4FF470400749086001200871002063
:101160008871032048710020C8710348FFF710FC04
:1011700010BD00001C000020000C0240FFF700FE24
:10118000234800684FF47A72B0FBF2F1481EB0F1C8
:10119000807F01D301201BE0481E4FF0E022506108
:1011A00050170F22002804DB13071C0E194B1C5488
:1011B00006E013071D0E184B00F00F04241F1D55E9
:1011C00000BF00204FF0E022906107201061002056
:1011D00008B100BFFEE7FFF7B7FFFFF7A3FEFFF779
:1011E000F5F9FFF731FAFFF76FFAFFF7ADFAFFF7FE
:1011F00049F90CE0FFF72CFD00F0A8F8074800784B
:10120000052804DD00F06AF8002004490870F1E7C1
:101210004800002000E400E018ED00E01A00002083
:101220000FB4F8B507A80090069C50E003E02078C2
:10123000FFF7CAFE641C2078252802D020780028F9
:10124000F5D1641C20786F2822D004DC632807D0F5
:1012500064283AD10BE0732825D0782835D129E0CD
:10126000009820C80090E8B2FFF7AEFE2DE000988D
:1012700020C80090002D03DA6D422D20FFF7A4FE58
:101280000A212846FFF748FF0746FFF7ADFE1CE09E
:10129000009820C8009008212846FFF73DFF074628
:1012A000FFF7A2FE11E0009840C800903046FFF71B
:1012B0009BFE0AE0009820C8009010212846FFF706
:1012C0002BFF0746FFF790FE00BF00BF641C20788D
:1012D0000028ABD10090F8BC5DF814FB16480088DC
:1012E000FF2803DD01201549088002E00020134992
:1012F000088011484088FF2803DD0120104908803C
:1013000002E000200E4908800B488088FF2803DD9A
:1013100001200C49088002E000200A4908800648A4
:10132000C088FF2803DD01200749088002E0002073
:1013300005490880704700004C0000201200002082
:1013400014000020160000201800002010B51C48D2
:101350000088012804D101031A48FFF786FB04E046
:101360004FF480511748FFF77EFB1748008801288B
:1013700004D141031348FFF778FB04E04FF4005118
:101380001048FFF770FB11480088012804D1810341
:101390000C48FFF76AFB04E04FF480410948FFF76F
:1013A00062FB0B480088012804D1C1030548FFF700
:1013B0005CFB04E04FF400410248FFF754FB10BD12
:1013C0000A000020000C02400C0000200E0000204B
:1013D000100000204FF04070E1EE100A704700004E
:1013E00000000000000001020304060708090000D5
:1013F000000001020304000018140008000000208F
:101400004C000000C4010008641400084C000020D7
:101410009C060000E0010008000000000000000041
:1014200001000000000000000000000000000000BB
:1014300000000000000000000000000030313233E6
:1014400034353637383941424344454600000000C0
:10145000000102030401020304060708090000005A
:041460000024F40070
:040000050800018965
:00000001FF
